:100045008B148A158916AB14AA15A9161200066019
:010055001199
:10005600120006FF1201900516E51670E8051580D8
:02006600E42292
:10006800758A00758CDCD28C308DFDC28CC28D22D5
:10007800758A00758C28D28C308DFDC28CC28D2279
:100088007F381200B47F381200B47F381200B47F72
:0A009800061200B47F0C1200B4221F
:0B00A200D287D293C291D29230870621
:0700AD00C293D29380F722F9
:0E00B4008F80C291C292D293C2931200A222F8
:0E00C2008F80D291C292D293C2931200A222DA
:1000D000EBFDEAFCE9F8EDFBECFAE8F9120006604A
:1000E00015EDFBECFAE8F908E870020CEC120006DA
:0700F000FF1200C280E022B4
:0E00F700EF14600A14600F14601414601922D4
:10010500ED247FFF1200B422ED24BFFF1200B422BC
:10011500ED2493FF1200B422ED24D3FF1200B42284
:090125007F011200B412006822EF
:09012E00D297D296C297C2962224
:07013700C297D296D2972275
:02013E007E0041
:10014000EF548024FF9297D296C296EFC333FF0EEE
:0E015000BE08EDD297D296A2979203C29622D5
:05015E00E4FEFFC29663
:10016300D296A2979203EEC333FEA203E4332EFE8C
:0E017300C2960FBF08EAD297D296C296FF221C
:0F01810012012E7FA512013E12015E12013722DC
:100190008F0512012E7FA412013E8D0712013E121F
:0601A00001372095FD224D
:1001E200E4F511C290758911E58E44FDF58ED28831
:1001F200D2A8D2AF1200887F017D011200F730949D
:10020200081201811200C280F51200687F491200B3
:0E021200C275D80075D90075DB21D2AED200BE
:030220003001109A
:10022300C20175DB00120181BF0DFA75DB21D20219
:030233003002EAAC
:10023600C202E5112400B4080040030202E8FA23D2
:100246002A90024B730202E8020265020278020259
:0F0256008B02029E0202C80202D70202E880BB9E
:100265007F421200C27511027B057A0179A6120040
:100275004580A87F431200C27511037B057A017979
:10028500AC12004580957F441200C27511047B05B0
:100295007A0179BC12004580827F451200C2751132
:1002A50005D290E4F512F513E512B40305E513B490
:1002B500E800502F7F341201900513E51370E9050E
:1002C5001280E5C2907F461200C2D2017511060266
:1002D50002207F471200C27511077B057A0179C696
:0602E50012004502022098
:0B02EB00C0D075D00830000730D904E7
:0702F600C2D9D201D0D032C1
:1002FD00C0E0C0F0C083C082C0D0C000C001C00249
:10030D00C003C004C005C006C007E5A0541FF5100A
:06031D002000030203C2F0
:10032300E510B4050280625013E510602214602DBD
:1003330014603514603D1460450203C2E51024FACD
:0F034300605224FE605914607624FD606F807054
:100352007511017B057A0179CC12004580627B051B
:100362007A0179CC12004580577B057A0179A61271
:100372000045804C7B057A0179AC12004580417BB7
:10038200057A0179D012004580367B057A0179D849
:10039200120045802B7B057A0179C6120045802028
:1003A2001201251201811200C21201811200C21231
:1003B20001811200C21201811200C28003120125C2
:1003C200D007D006D005D004D003D002D001D0008F
:0B03D200D0D0D082D083D0F0D0E03239
:030003000202FDF9
:030033000202EBDB
:1001A600464D20530D004F462030573E544553547C
:1001B6002E5458540D00574620303E3345380D0016
:1001C600434620300D0053440D00574620303E393B
:0C01D6000D003132333435363738390033
:03000000020036C5
:0F003600758121E4787FF6D8FD75A0FF0201E205
:10000600EB30E11320E00EC083C08289828A83E050
:10001600D082D08322E3226405700EC083C0828919
:0B002600828A8393D082D08322E722DD
:00000001FF
