:100079001201711200427F017D041201E07B057AB1
:100089000079261201B97F027D041201E07B057A0D
:100099000079301201B9D2A8D28875C53375C32049
:1000A90053C3EF85C3C353C3F785C3C343C3048590
:0600B900C3C3D2AFD20068
:0300BF003001FD10
:1000C200C2011200427F017D011201E0E50A24F023
:0C00D200601424D0601724C06002801667
:1000DE0085C50BAF0B1201AB800C7F461201AB80B6
:0E00EE00057F4F1201ABE50B2420F5C580C342
:0A001500C0D085C40AD201D0D03259
:1000FC00C0E0C0F0C083C082C0D0C000C001C0024C
:0E010C00C003C004C005C006EFC00730001FCE
:10011A001200427F027D081201E07B057A00793CD9
:10012A001201B943B10485B1B143C34085C3C3D0F9
:10013A0007D006D005D004D003D002D001D000D019
:0A014A00D0D082D083D0F0D0E03294
:05015400C0D030980549
:08015900C298859908D0D0324C
:060042007F0112019D2266
:10016100758B90758DFED28E308FFDC28EC28F221F
:100171007F3812019D7F3812019D7F3812019D7FCA
:0A0181000612019D7F0C12019D2261
:0B018B00D287D2A6C2A4D2A5308706FE
:07019600C2A6D2A680F722E9
:0E019D008F80C2A4C2A5D2A6C2A612018B22D8
:0E01AB008F80D2A4C2A5D2A6C2A612018B22BA
:1001B900EBFDEAFCE9F8EDFBECFAE8F912004E6018
:1001C90015EDFBECFAE8F908E870020CEC12004EA8
:0701D900FF1201AB80E022E0
:0E01E000EF14600A14600F14601414601922EA
:1001EE00ED247FFF12019D22ED24BFFF12019D22FF
:1001FE00ED2493FF12019D22ED24D3FF12019D22C7
:0F020E00D2993099FDC2998F993099FDC29922EA
:10021D00EBFDEAFCE9F8EDFBECFAE8F912004E60B3
:01022D0014BC
:10022E00EDFBECFAE8F912004EFF12020E08E87030
:05023E00E40C80E12248
:0300230002015483
:030003000200FCFC
:03004B000200159B
:1000260053504920536C61766500312042797465DE
:0C00360020546573740052656164790009
:03000000020006F5
:0F000600758121E478FFF6D8FD75A0FF0200791F
:10004E00EB30E11320E00EC083C08289828A83E008
:10005E00D082D08322E3226405700EC083C08289D1
:0B006E00828A8393D082D08322E72295
:00000001FF
