:0D01D200496E73686120416C6C616821000A
:10000600011B55C100010C01010D0201100401196B
:1000160001010B02010F0801150101160201170467
:10002600011210011104010E08011820011C04011F
:0B0036001D08011410010940010880A2
:10015200120184120184120184E510450BFF120181
:090162008BE50F4517FF02018B2C
:10019800D287D293C291D292308706C293D29380EB
:0201A800F7223C
:07018400E5184514451DFFBD
:0D018B008F80C291C292D293C2930201985C
:0D01B8008F80D291C292D293C2930201981F
:100111008B218A228923AB21AA22A92312016B6098
:10012100130523E5237002052214F912016BFF1256
:0501310001B880E2228C
:0D01C500EFC4333354C045084DFF02018BD9
:1000DA001201527F0112018B7BFF7A0179D2120140
:1000EA001143C31043C38243C32053C3F743C3041A
:1000FA0043B10443A801D28843C340D2AF851BC58C
:07010A003000FDC20080F689
:030003000201AA4D
:0E01AA00C0E0300106E5A0541FF51AD0E03287
:03004B0002013679
:10013600C0E0C0D075D000C007AFC4EF2480700502
:0C01460085C50AD200D007D0D0D0E0322E
:0300000002004EAD
:0C004E00787FE4F6D8FD75812302009550
:10016B00BB010689828A83E0225002E722BBFE0292
:09017B00E32289828A83E49322C5
:10005A000200DAE493A3F8E493A34003F68001F2E2
:10006A0008DFF48029E493A3F85407240CC8C333A7
:10007A00C4540F4420C8834004F456800146F6DF76
:10008A00E4800B0102040810204080900006E47E00
:10009A00019360BCA3FF543F30E509541FFEE4936B
:1000AA00A360010ECF54C025E060A840B8E493A332
:1000BA00FAE493A3F8E493A3C8C582C8CAC583CA5D
:1000CA00F0A3C8C582C8CAC583CADFE9DEE780BE15
:0100410000BE
:00000001FF
