:100079001201861201707F017D041201F57B057A58
:100089000079261201CE7F027D021201F57B057AE5
:100099000079301201CED2A8D28875C53375C32034
:1000A90053C3EF85C3C353C3F785C3C343C3048590
:0600B900C3C3D2AFD20068
:0300BF003001FD10
:1000C200C201E50A24F0603024D0603324C060020B
:0200D20080EBC1
:1000D40085C50C7F01E50B04FD1201F5AF0C12017F
:1000E400C07F02E50B04FD1201F5E50B2430FF127D
:1000F40001C0050B80C57F461201C080BE7F4F1230
:0401040001C080B7FF
:0A001500C0D085C40AD201D0D03259
:10010800C0E0C0F0C083C082C0D0C000C001C0023F
:0E011800C003C004C005C006EFC007300022BF
:100126001201707F027D081201F5E4F50B7B057A5A
:100136000079401201CE43B10485B1B143C3408575
:10014600C3C3D007D006D005D004D003D002D00157
:0D015600D000D0D0D082D083D0F0D0E032E5
:05016300C0D03098053A
:08016800C298859908D0D0323D
:060170007F011201B22222
:10017600758B90758DFED28E308FFDC28EC28F220A
:100186007F381201B27F381201B27F381201B27F76
:0A019600061201B27F0C1201B22222
:0B01A000D287D2A6C2A4D2A5308706E9
:0701AB00C2A6D2A680F722D4
:0E01B2008F80C2A4C2A5D2A6C2A61201A022AE
:0E01C0008F80D2A4C2A5D2A6C2A61201A02290
:1001CE00EBFDEAFCE9F8EDFBECFAE8F912004E6003
:1001DE0015EDFBECFAE8F908E870020CEC12004E93
:0701EE00FF1201C080E022B6
:0E01F500EF14600A14600F14601414601922D5
:10020300ED247FFF1201B222ED24BFFF1201B222BF
:10021300ED2493FF1201B222ED24D3FF1201B22287
:0F022300D2993099FDC2998F993099FDC29922D5
:10023200EBFDEAFCE9F8EDFBECFAE8F912004E609E
:0102420014A7
:10024300EDFBECFAE8F912004EFF12022308E87006
:05025300E40C80E12233
:0300230002016374
:03000300020108EF
:03004B000200159B
:1000260053504920536C617665004D756C74692098
:100036004279746520546573740052656164790071
:03000000020006F5
:0F000600758121E478FFF6D8FD75A0FF0200791F
:10004E00EB30E11320E00EC083C08289828A83E008
:10005E00D082D08322E3226405700EC083C08289D1
:0B006E00828A8393D082D08322E72295
:00000001FF
