:100093008B148A158916AB14AA15A91612000660CB
:0100A300114B
:1000A400120006FF12022A0516E51670E8051580EF
:0200B400E42244
:1000B600758A00758CDCD28C308DFDC28CC28D2287
:1000C600758A00758C28D28C308DFDC28CC28D222B
:1000D6007F381201027F381201027F381201027F37
:0A00E600061201027F0C1201022233
:0B00F000D287D293C2B6D292308706AE
:0700FB00C293D29380F722AB
:0E0102008F80C2B6C292D293C2931200F02236
:0E0110008F80D2B6C292D293C2931200F02218
:10011E00EBFDEAFCE9F8EDFBECFAE8F912000660FB
:10012E0015EDFBECFAE8F908E870020CEC1200068B
:07013E00FF12011080E02216
:0E014500EF14600A14600F1460141460192285
:10015300ED247FFF12010222ED24BFFF12010222D0
:10016300ED2493FF12010222ED24D3FF1201022298
:090173007F011201021200B62204
:05017C007A01DAFE2209
:0B01810012017CD29612017CC2962273
:10018C00309602C296D297D29612017CC297120177
:04019C007CC2962269
:1001A000309602C296C29712017CD29612017CD27E
:0201B000972294
:0501B2008F1875190013
:1001B700E518548024FF92039297120181E518C332
:1001C70033F5180519E519B408E6D29712017CD260
:0E01D7009612017CA2979203C29612017C221E
:0301E500E4FEFF36
:1001E80012017CD29612017CA2979203EEC333FED1
:0E01F800A203E4332EFEC2960FBF08E4FF22DE
:0B020600D29712017C120181D29622D7
:1002110012018C7FA51201B21201E58F14120206A0
:090221001201A0AF141201102219
:10022A008F1712018C7FA41201B2AF171201B212FA
:06023A0001A02095FD2249
:10027D00E4F511758911D288D2A8D2AF1200D67FBC
:10028D00017D0112014530940512021180F8120012
:10029D00B67F4912011075D80075D90075DB21D2D2
:0302AD00AED200CE
:0302B0003001100A
:1002B300C20175DB00120211BF0DFA75DB21D202F8
:0302C3003002EA1C
:1002C600C202E5112400B40800400302037FFA23AA
:1002D6002A9002DB7302037F0202F502030802037F
:0F02E6001B02032E02036102036E02037F80BB23
:1002F5007F421201107511027B057A0279401200C6
:100305009380A87F431201107511037B057A02794A
:100315004612009380957F441201107511047B05E8
:100325007A02795612009380827F45120110751169
:1003350005E4F512F513E4FDFCC0E0C0E0C012C011
:100345001374C3FE7450FF120036BFFF2D7F3112A8
:10035500022A0513E51370DE051280DA7F461201C5
:1003650010D2017511060202B07F471201107511F6
:0D037500077B057A0279611200930202B045
:0B038200C0D075D00830000730D9044F
:07038D00C2D9D201D0D03229
:10039400C0E0C0F0C083C082C0D0C000C001C002B1
:1003A400C003C004C005C006C007E5A0541FF51073
:0603B40020000302044DCD
:1003BA00E510B4050280735012E510602114603B09
:1003CA0014604614604E1460568078E51024FA6072
:0E03DA006424FE606E14606B24FD6064806518
:1003E80012017312021112011012021112011012DD
:1003F8000211120110120211120110804875110128
:100408007B057A027967120093803A7B057A027934
:1004180040120093802F7B057A0279461200938060
:10042800247B057A02796B12009380197B057A0286
:100438007973120093800E7B057A0279611200931A
:100448008003120173D007D006D005D004D003D0A2
:1004580002D001D000D0D0D082D083D0F0D0E0320A
:0300030002039461
:0300330002038243
:10024000464D20530D004F462030573E54455354E1
:100250002E5458540D00574620303E433335300D50
:1002600000434620300D0053440D00574620303ED9
:0D027000390D00313233343536373839005E
:0300000002008477
:0F008400758121E4787FF6D8FD75A0FF02027D1B
:10000600EB30E11320E00EC083C08289828A83E050
:10001600D082D08322E3226405700EC083C0828919
:0B002600828A8393D082D08322E722DD
:10003600E58124FBF9EC6480FCE76480F78005E544
:100046008124FBF9E5D054184404F87A04E687F0D5
:10005600B5F00A0908DAF6E4FEFF020075E450047A
:07006600FE0480F5F480F1B7
:10006D0074F9800674FA800274FCD083D0822581E5
:07007D00F581C082C083225F
:00000001FF
