:1000DF00D2A8D28875C310C2C3C2C4C2CA43C32038
:1000EF0085C3C353C3F785C3C343C30485C3C34386
:1000FF00B10485B1B143C34085C3C3D2AF1201F57B
:10010F007F017D041202667B057A00790612023F99
:10011F007F027D021202667B057A00791112023F7F
:02012F00D200FC
:0301310030024F4A
:10013400C2027F01E51004FD120266E50C24F060A2
:0B0144003224D0603524C060028034FB
:10014F0085C50DAF0D1202317F02E51004FD1202BD
:10015F0066E5102430FF120231E510B50F00501480
:10016F00D2010510050E800C7F4612023180057FEB
:07017F004F1202313001AB09
:07018600C201850EC580A433
:0A002600C0D085C40CD202D0D03245
:10018D00C0E0C0F0C083C082C0D0C000C001C002BA
:0E019D00C003C004C005C006EFC00730002F2D
:1001AB00E5A0541FF508E508600E146018146019DB
:0801BB0014601C146019801788
:1001C300C201750F0FE4F510850EC5800A050E8078
:1001D30006120294750E41D007D006D005D004D084
:1001E30003D002D001D000D0D0D082D083D0F0D0C1
:0201F300E032F8
:05003000C0D03098056E
:08003500C298859909D0D03270
:1001F5007F3812003D7F3812003D7F3812003D7F69
:0A0205000612003D7F0C12003D229E
:10020F00758BEE758DFFD28E308FFDC28EC28F2211
:0B021F00D287D293C291D292308706A2
:07022A00C293D29380F7227A
:0E003D008F80C291C292D293C29312021F22F0
:0E0231008F80D291C292D293C29312021F22EA
:10023F00EBFDEAFCE9F8EDFBECFAE8F912004E6091
:10024F0015EDFBECFAE8F908E870020CEC12004E21
:07025F00FF12023180E022D2
:0E026600EF14600A14600F1460141460192263
:10027400ED247FFF12003D22ED24BFFF12003D223A
:10028400ED2493FF12003D22ED24D3FF12003D2202
:0E0294007F0112003D1F12020F0FBF64F922FE
:0F02A200D2993099FDC2998F993099FDC2992256
:1002B100EBFDEAFCE9F8EDFBECFAE8F912004E601F
:0102C1001428
:1002C200EDFBECFAE8F912004EFF1202A208E87008
:0502D200E40C80E122B4
:0302D700040E41D1
:03002300020030A8
:0300030002018D6A
:03004B000200268A
:10000600535049204D6173746572004D756C746967
:0B00160020427974652054657374006B
:0300000002007982
:10007900758121E478FFF6D8FD9002D7E4937002E8
:10008900804EC31392D5C31392D1FFA3E493F8B062
:10009900D5402130D505E4A393F5A0E420D102A3EE
:1000A9009320D507F608DFF3A380D1F208B800F64C
:1000B90005A080F2E8030303541F2420F9E854073C
:1000C900F8E4D333B80002800333D8FD47F780D86A
:0600D90075A0FF0200DF2C
:10004E00EB30E11320E00EC083C08289828A83E008
:10005E00D082D08322E3226405700EC083C08289D1
:0B006E00828A8393D082D08322E72295
:0102DA000023
:00000001FF
