:0500DA00010A55C10000
:1000030043C310D29143C38253C3F743C30443B1E1
:100013000443C340D2AF850AC53000FDC200E4F5F6
:0B002300C53000FDC20085080980EB1D
:03004B0002002E82
:10002E00C0E0C0D075D000C007AFC4EF248070050B
:0C003E0085C508D200D007D0D0D0E03239
:0300000002004EAD
:0C004E00787FE4F6D8FD75812002009553
:10005A00020003E493A3F8E493A34003F68001F2B9
:10006A0008DFF48029E493A3F85407240CC8C333A7
:10007A00C4540F4420C8834004F456800146F6DF76
:10008A00E4800B01020408102040809000DAE47E2C
:10009A00019360BCA3FF543F30E509541FFEE4936B
:1000AA00A360010ECF54C025E060A840B8E493A332
:1000BA00FAE493A3F8E493A3C8C582C8CAC583CA5D
:1000CA00F0A3C8C582C8CAC583CADFE9DEE780BE15
:0100DF000020
:00000001FF
