:1000B400E53645334535FF1200E3E536453345352E
:1000C400FF1200E3E53645334535FF1200E3E52B27
:0F00D4004529FF1200E3E52F452CFF1200E32220
:0B003600D287D293C291D2923087068D
:07004100C293D29380F72265
:0E00E3008F80C291C292D293C2931200362235
:0E00F1008F80D291C292D293C2931200362217
:1000FF00EBFDEAFCE9F8EDFBECFAE8F9120006601B
:10010F0015EDFBECFAE8F908E870020CEC120006AA
:07011F00FF1200F180E02255
:0D012600EF030354C045384DFF1200E322E3
:100140001200B47F011200E37B057A0179331200BB
:10015000FFD288D2A843C31085C3C343C38285C3DB
:10016000C343C32085C3C343C30885C3C353C3FB71
:1001700085C3C343B10485B1B175D90375F9007561
:10018000E90075DB21E5A84441F5A8D2DE43C34070
:0701900085C3C3D2AFD20109
:030197003000FD38
:10019A00C200E522146009146006146003146000AA
:0401AA00052280E9C1
:0A01AE00C0E0C0D075D00830D90AB7
:0F01B800C2D975220175C5FF0526D0D0D0E0321F
:0C01C700C0E0C0D0C005EFC00730013D13
:1001D300E5A0541FF5257F011200E3E4FFFD1201A2
:1001E30026E525600B14600D146012146019801D40
:1001F300E4F526801875C5FF7522018010E52624D5
:1002030030FF1200F1800675C549752201D007D071
:0602130005D0D0D0E0325E
:10021900C0E0C0D0EFC007E5C424F0601924D06065
:070229001524C06002800FE4
:1002300085C521D200AF211200F17F201200F1D03C
:0602400007D0D0D0E0322F
:10024600042355042701042802042904042A01046E
:100256002B02042C08042D01042E02042F04043062
:10026600100431040432080433200434040435082D
:09027600043610043740043880FE
:03004B0002021995
:030003000201C730
:030033000201AE19
:0D013300496E73686120416C6C61682100A9
:0300000002004EAD
:10004E00758139E478FFF6D8FD900246E49370028C
:10005E00804EC31392D5C31392D1FFA3E493F8B08D
:10006E00D5402130D505E4A393F5A0E420D102A319
:10007E009320D507F608DFF3A380D1F208B800F677
:10008E0005A080F2E8030303541F2420F9E8540767
:10009E00F8E4D333B80002800333D8FD47F780D895
:0600AE0075A0FF020140F5
:10000600EB30E11320E00EC083C08289828A83E050
:10001600D082D08322E3226405700EC083C0828919
:0B002600828A8393D082D08322E722DD
:01027F00007E
:00000001FF
