:0400150012006F2244
:10005100539BEC859B9B439B0C859B9B30020575B9
:0E0061009AFA8003759AFF439B10859B9B22A1
:10006F00758BCD758DF8D28E308FFDC28EC28F22DB
:10007F007F381200AB7F381200AB7F381200AB7F96
:0A008F00061200AB7F0C1200AB223A
:0B009900D287D293C2B6D29230870605
:0700A400C293D29380F72202
:0E00AB008F80C2B6C292D293C29312009922E5
:0E00B9008F80D2B6C292D293C29312009922C7
:1000C700EBFDEAFCE9F8EDFBECFAE8F91200266033
:1000D70015EDFBECFAE8F908E870020CEC120026C3
:0700E700FF1200B980E022C6
:0E00EE00EF14600A14600F14601414601922DD
:1000FC00ED247FFF1200AB22ED24BFFF1200AB22D8
:10010C00ED2493FF1200AB22ED24D3FF1200AB229F
:0C011C007F011200AB12006F12006F2276
:0F012800D2993099FDC2998F993099FDC29922D1
:10013700EBFDEAFCE9F8EDFBECFAE8F912002660C2
:0101470014A3
:10014800EDFBECFAE8F9120026FF12012808E87026
:05015800E40C80E1222F
:0A0019003098FDAE998E07C29822C0
:10017E00750B00E50BB4C800500712006F050B801D
:10018E00F2D2A8D288758912759850539BEC859B34
:10019E009B439B0C859B9B759AFA439B10859B9B5F
:1001AE00D2AF12007F7F017D031200EE7B057A0134
:1001BE00795D1200C7120019BF21FA7F027D03126A
:1001CE0000EE7B057A01796D1200C712001912003C
:1001DE00B91200191200B97B057A01797312013731
:1001EE00120019BF21FA1200191200B912001912C9
:1001FE0000B97B057A017976120137120019BF21F9
:10020E00FA1200191200B91200191200B9C2021224
:10021E000051120019BF21FA1200191200B9120072
:06022E00191200B9D20014
:030234003001FD99
:10023700C2017F017D011200EEAF0A1200B980ED05
:05024700C0D030980753
:0A024C00C29885990AD201D0D03281
:0A025600C0E0C0D0EFC00730001474
:0F026000E5A0541FF508E5086005146007800548
:0C026F007F301200B9D007D0D0D0E032B0
:03000300020256A0
:030023000202478F
:10015D0055534257495A5F4F454D5F5541525400D3
:10016D00476F6F642100490D004220343346320D34
:01017D000081
:03000000020006F5
:0F000600758121E478FFF6D8FD75A0FF02017E19
:10002600EB30E11320E00EC083C08289828A83E030
:10003600D082D08322E3226405700EC083C08289F9
:0B004600828A8393D082D08322E722BD
:00000001FF
