:1000DF00D2A8D28875C310C2C3C2C4C2CA43C32038
:1000EF0085C3C353C3F785C3C343C30485C3C34386
:1000FF00B10485B1B143C34085C3C3D2AF1201C1AF
:10010F007F017D041202327B057A00790612020B01
:10011F007F027D021202327B057A00791112020BE7
:02012F00D200FC
:030131003001FD9D
:10013400C201120260E50C24F0601424D06017247C
:05014400C0600280E82C
:1001490085C50DAF0D1201FD80DE7F461201FD80D0
:08015900D77F4F1201FD80D099
:0A002600C0D085C40CD201D0D03246
:10016100C0E0C0F0C083C082C0D0C000C001C002E6
:0E017100C003C004C005C006EFC00730002761
:10017F00E5A0541FF508E508600E14601014601117
:08018F00146014146011800FCC
:10019700850EC5800A050E8006120260750E41D0D5
:1001A70007D006D005D004D003D002D001D000D0AC
:0A01B700D0D082D083D0F0D0E03227
:05003000C0D03098056E
:08003500C298859909D0D03270
:1001C1007F3812003D7F3812003D7F3812003D7F9D
:0A01D1000612003D7F0C12003D22D3
:1001DB00758BEE758DFFD28E308FFDC28EC28F2246
:0B01EB00D287D293C291D292308706D7
:0701F600C293D29380F722AF
:0E003D008F80C291C292D293C2931201EB2225
:0E01FD008F80D291C292D293C2931201EB2254
:10020B00EBFDEAFCE9F8EDFBECFAE8F912004E60C5
:10021B0015EDFBECFAE8F908E870020CEC12004E55
:07022B00FF1201FD80E0223B
:0E023200EF14600A14600F1460141460192297
:10024000ED247FFF12003D22ED24BFFF12003D226E
:10025000ED2493FF12003D22ED24D3FF12003D2236
:0E0260007F0112003D1F1201DB0FBF64F92267
:0F026E00D2993099FDC2998F993099FDC299228A
:10027D00EBFDEAFCE9F8EDFBECFAE8F912004E6053
:01028D00145C
:10028E00EDFBECFAE8F912004EFF12026E08E87070
:05029E00E40C80E122E8
:0302A300040E4105
:03002300020030A8
:0300030002016196
:03004B000200268A
:10000600535049204D61737465720053696E676C75
:0C00160065204279746520546573740005
:0300000002007982
:10007900758121E478FFF6D8FD9002A3E49370021C
:10008900804EC31392D5C31392D1FFA3E493F8B062
:10009900D5402130D505E4A393F5A0E420D102A3EE
:1000A9009320D507F608DFF3A380D1F208B800F64C
:1000B90005A080F2E8030303541F2420F9E854073C
:1000C900F8E4D333B80002800333D8FD47F780D86A
:0600D90075A0FF0200DF2C
:10004E00EB30E11320E00EC083C08289828A83E008
:10005E00D082D08322E3226405700EC083C08289D1
:0B006E00828A8393D082D08322E72295
:0102A6000057
:00000001FF
