:1000DF00D2A8D28843B10485B1B175C354D2AF123F
:1000EF0001CC7F017D0412023D7B057A0079061257
:1000FF0002167F027D0212023D7B057A00791112F2
:04010F000216D20002
:030113003001FDBB
:10011600C20112026BE50C24F0601424D06017248F
:05012600C0600280E84A
:10012B0085C50DAF0D12020880DE7F4612020880D6
:08013B00D77F4F12020880D0AB
:0A002600C0D085C40CD201D0D03246
:10014300C0E0C0F0C083C082C0D0C000C001C00204
:0E015300C003C004C005C006EFC00730005056
:10016100E5A0541FF508E508B403028036500CE5FC
:100171000860131460211460228035E50824FC60B6
:0601810027146029802A0A
:1001870075C54675C54D75C52075C55375C50D80B3
:1001970019050E801512026B750E41800D75C5FF8E
:1001A700800875C5FF800375C5FFD007D006D00549
:1001B700D004D003D002D001D000D0D0D082D083D9
:0501C700D0F0D0E03291
:05003000C0D03098056E
:08003500C298859909D0D03270
:1001CC007F3812003D7F3812003D7F3812003D7F92
:0A01DC000612003D7F0C12003D22C8
:1001E600758BEE758DFFD28E308FFDC28EC28F223B
:0B01F600D287D293C2B6D292308706A7
:07020100C293D29380F722A3
:0E003D008F80C2B6C292D293C2931201F622F5
:0E0208008F80D2B6C292D293C2931201F62218
:10021600EBFDEAFCE9F8EDFBECFAE8F912004E60BA
:1002260015EDFBECFAE8F908E870020CEC12004E4A
:07023600FF12020880E02224
:0E023D00EF14600A14600F146014146019228C
:10024B00ED247FFF12003D22ED24BFFF12003D2263
:10025B00ED2493FF12003D22ED24D3FF12003D222B
:0E026B007F0112003D1F1201E60FBF64F92251
:0F027900D2993099FDC2998F993099FDC299227F
:10028800EBFDEAFCE9F8EDFBECFAE8F912004E6048
:010298001451
:10029900EDFBECFAE8F912004EFF12027908E8705A
:0502A900E40C80E122DD
:0302AE00040E41FA
:03002300020030A8
:03000300020143B4
:03004B000200268A
:10000600535049204D61737465720053696E676C75
:0C00160065204279746520546573740005
:0300000002007982
:10007900758121E478FFF6D8FD9002AEE493700211
:10008900804EC31392D5C31392D1FFA3E493F8B062
:10009900D5402130D505E4A393F5A0E420D102A3EE
:1000A9009320D507F608DFF3A380D1F208B800F64C
:1000B90005A080F2E8030303541F2420F9E854073C
:1000C900F8E4D333B80002800333D8FD47F780D86A
:0600D90075A0FF0200DF2C
:10004E00EB30E11320E00EC083C08289828A83E008
:10005E00D082D08322E3226405700EC083C08289D1
:0B006E00828A8393D082D08322E72295
:0102B100004C
:00000001FF
