:10008E008B108A118912AB10AA11A912120054609A
:01009E001150
:10009F00120054FF1202220512E51270E8051180BA
:0200AF00E42249
:1000B100758A00758CDCD28C308DFDC28CC28D228C
:1000C100758A00758C28D28C308DFDC28CC28D2230
:1000D1007F381200FD7F381200FD7F381200FD7F4E
:0A00E100061200FD7F0C1200FD2244
:0B00EB00D287D293C2B6D292308706B3
:0700F600C293D29380F722B0
:0E00FD008F80C2B6C292D293C2931200EB2241
:0E010B008F80D2B6C292D293C2931200EB2222
:10011900EBFDEAFCE9F8EDFBECFAE8F912005460B2
:1001290015EDFBECFAE8F908E870020CEC12005442
:07013900FF12010B80E02220
:0E014000EF14600A14600F146014146019228A
:10014E00ED247FFF1200FD22ED24BFFF1200FD22E1
:10015E00ED2493FF1200FD22ED24D3FF1200FD22A9
:09016E007F011200FD1200B12214
:050177007A0FDAFE2200
:0B017C00120177D296120177C2962282
:10018700309602C296D297D296120177C297120181
:0401970077C2962273
:10019B00309602C296C297120177D296120177D28D
:0201AB00972299
:0501AD008F1475150020
:1001B200E514548024FF9205929712017CE514C342
:1001C20033F5140515E515B408E6D297120177D276
:0E01D20096120177A2979205C296120177222B
:0301E000E4FEFF3B
:1001E300120177D296120177A2979205EEC333FEDE
:0E01F300A205E4332EFEC2960FBF08E4FF22E1
:0B020100D29712017712017CD29622E6
:10020C001201877FA51201AD1201E08F10120201BD
:06021C0012019BAF10224D
:100222008F131201877FA41201ADAF131201AD1219
:06023200019B2095FD2256
:10023800750901758911D288D2A8D2AF1200D17F71
:10024800017D0112014030940512020C80F8120061
:08025800B17F4912010BD20035
:080260003094FD12020C80F83D
:10029300C0E0C0F0C083C082C0D0C000C001C002B3
:1002A300C003C004C005C006C007E5A0541FF5087D
:0602B300200003020367B6
:1002B900E508B4040280635010E508601F14603932
:1002C900146041146049020367E50824FB60561471
:0C02D900607E24FA7003020364020367D5
:1002E50012016E12020C12010B12020C12010B12FA
:1002F500020C12010B12020C12010B80657B057AB0
:1003050002796812008E805A7B057A02796C120098
:100315008E804F7B057A02797212008E80447B05B0
:100325007A02798212008E8039E4F50EF50FE4FD2C
:10033500FCC0E0C0E0C00EC00F74C3FE7450FF12D5
:100345000006BFFF1D7F30120222050FE50F70DE8C
:10035500050E80DA7B057A02798D12008E800312F4
:10036500016ED007D006D005D004D003D002D0014D
:0D037500D000D0D0D082D083D0F0D0E032C4
:0300030002029363
:1002680053440D00464D20530D004F462030573E55
:10027800544553542E5458540D00574620303E438D
:0B0288003335300D00434620300D00E0
:0300000002007F7C
:0F007F00758121E4787FF6D8FD75A0FF02023865
:10005400EB30E11320E00EC083C08289828A83E002
:10006400D082D08322E3226405700EC083C08289CB
:0B007400828A8393D082D08322E7228F
:10000600E58124FBF9EC6480FCE76480F78005E574
:100016008124FBF9E5D054184404F87A04E687F005
:10002600B5F00A0908DAF6E4FEFF020045E45004DA
:07003600FE0480F5F480F1E7
:10003D0074F9800674FA800274FCD083D082258115
:07004D00F581C082C083228F
:00000001FF
